:020000040000FA
:104000000080002021550000D15100002B550000F8
:1040100000000000000000000000000000000000A0
:104020000000000000000000000000002B55000010
:1040300000000000000000002D5500002F5500007A
:10404000F9400000315500003155000031550000A5
:104050003155000031550000315500003155000048
:104060003155000031550000315500003155000038
:104070003155000031550000315500003155000028
:104080003155000031550000315500003155000018
:104090000348854601F07CFA00480047CD40000007
:1040A0000080002010B51B48806A012149020843A6
:1040B000184988620121080200F0D8FC0321012080
:1040C000400200F0D3FC01F033F810BDFFF7EAFF27
:1040D00011A001F06FFA164800F0EAFF1548807849
:1040E0000121084313498870002001218140124AB0
:1040F000116000BF00BFFEE710B50E488079C00711
:10410000C00F002805D001200A4988710BA001F0DA
:1041100051FA10BD80100040757365722061707097
:1041200020656E746572202E2E2E2E2E0D0A000034
:1041300000D430000020004000E100E0757365729B
:104140002061707020696E74657272757074200DD4
:104150000A00000010B55720FB490870A82008701D
:104160008820F949403908810020F74908700A2061
:1041700000F06FFF012000F07DFE10BD00B50300D0
:1041800001F022FA0D081A2C37414C56606A7580EE
:104190008B96A1005721EC4A1170A8211170EA49B1
:1041A0002039C97B04229143E74A203AD173C821C0
:1041B000E54A403A118187E05721E34A1170A8216E
:1041C0001170E1492039C97B04221143DE4A203AAB
:1041D000D173C821DC4A403A118175E05721DA4A8F
:1041E0001170A82111705121C900D74A403A11819C
:1041F0006AE05721D44A1170A8211170D349D24ADC
:10420000403A118160E05721CF4A1170A821117006
:1042100081218900CC4A403A118155E05721CA4A90
:104220001170A82111708821C74A403A11814BE0D2
:104230005721C54A1170A82111700221C24A403A83
:10424000118141E05721C04A1170A8211170042149
:10425000BD4A403A118137E05721BB4A1170A8216D
:10426000117093218900B84A403A11812CE05721FE
:10427000B54A1170A8211170B4494D31B24A403A83
:10428000118121E05721B04A1170A82111709521A8
:104290008900AD4A403A118116E05721AA4A1170AF
:1042A000A82111704B21C900A74A403A11810BE0A7
:1042B0005721A54A1170A8211170A4495C31A24A66
:1042C000403A118100E000BF00BF00219E4A1170FA
:1042D00000BD10B59C4840380089C4B2C0202040C1
:1042E000802801D19A4810BDC0202040402805D127
:1042F000E106C90E974801F037F9F4E7C0202040E5
:10430000002805D1E106C90E914801F02DF9EAE730
:104310007D200002E7E757218B4A1170A821117018
:10432000002808D188494039098952159143864AA5
:10433000403A118108E0844940390989012252023A
:104340001143814A403A118100217F4A1170704720
:1043500057217D4A1170A8211170002808D17A498F
:104360002039C97B04229143774A203AD17307E070
:1043700075492039C97B04221143734A203AD1730D
:104380000021714A117070476F4A917BFC220A40EC
:1043900083079B0F1A43114657226B4B1A70A822B2
:1043A0001A701A46917300221A707047664A917B00
:1043B0008F220A4003011A43D1B25722624B1A706E
:1043C000A8221A701A46917300221A7070475E4A2A
:1043D000203A917BFC220A4083079B0F1A43114627
:1043E0005722594B1A70A8221A70574A203A9173D3
:1043F00000221A707047544A203A917B0A07120F24
:1044000003011A43D1B257224F4B1A70A8221A70D7
:104410004D4A203A917300221A707047F0B589B066
:1044200000200290484840380089C4B2C020204093
:10443000802805D1484807900220C04304903EE000
:10444000C0202040402816D1E106C90E434801F0A3
:1044500075F8012189034018C00B0790E106C90EC9
:10446000E206D20E521E2423DB43981A01F07CF898
:1044700000B2049023E0C020204000281BD1E106B8
:10448000C90E374801F070F80121890340180190E6
:10449000C017410C01980818C0130790E106C90E17
:1044A000E206D20E521E0223DB43981A01F05CF89A
:1044B00000B2049003E005200790002004900798C4
:1044C0000005000D0890204820388689002700202C
:1044D000039057201C490870A82008700120887498
:1044E00000BF572018490870A820087016482038C7
:1044F00086810020087000BF1348807C022108409C
:104500000028F9D01048008A069000BF0E48807C31
:10451000022108400028F9D100BF0B48807C02210D
:1045200008400028F9D00848008A06900298401CEC
:10453000C0B2029008990698401A05B2002D11D118
:10454000002009B0F0BD0000401000400202000051
:104550000048E80100389C1C1313000000180D8F60
:104560000068890928467843002832DA0398012830
:1045700006D00398401C002802D00398002828D1B8
:10458000002F03DA781EC04307B202E0681EC04362
:1045900005B2BD4214DD5720FE490870A8200870FE
:1045A000FC492039059888810020FA4908707D214E
:1045B000C90079430846089900F0D6FF80B2C0E7E9
:1045C0007D21C90069430846089900F0CDFF80B2FB
:1045D000B7E72F4605962846049900F0C5FF00B2BC
:1045E00003900398301A86B20598864206D1002DB2
:1045F00002DD701C86B201E0701E86B2029814289B
:1046000000DA6EE7FF209CE7FFB585B0044626463A
:10461000069D002003901FE0701EFF21913100F0E5
:10462000A3FF00290DD0701E642100F09DFF00291A
:104630000AD0771EF817800FC01980108000381A32
:1046400002D1FF216F3101E0FF216E31039808187C
:1046500080B20390701E86B2CF488642DCDC35E023
:10466000A81E012819D1FF219131204600F07CFFBE
:1046700000290DD06421204600F076FF002909D0E2
:104680002746E017800FC01980108000201A01D142
:10469000012000E000201C3012E0A81E062807DDE3
:1046A000C007C00F002801D01E2009E01F2007E02E
:1046B000A81EC007C00F002801D01F2000E01E2048
:1046C0000399401880B20390681E85B2012DC7DCA3
:1046D0000798401E0399401880B20390182108984B
:1046E00000F042FFE120C00041431E220E985043DB
:1046F00009180F9FF80FC0194010081880B20290D7
:104700000F98C007C00F002802D00120C00300E0AE
:10471000002001900298049004980104019801433C
:10472000049157209B490870A82008709949403986
:104730000398486397482038407C80210843954976
:104740002039487493494039049848639148203887
:10475000407C402108438F492039487400208D490E
:10476000087009B0F0BDFFB583B004460D46894816
:104770004038C06B8604B60C86482038408B0190C8
:1047800084482038008B0090019841000122D20318
:104790000098904201DB012000E000200818029000
:1047A0007D4820801EE02088FF21913100F0DCFE52
:1047B00000290DD02088642100F0D6FE00290AD0FF
:1047C0002788F817800FC01980108000381A02D18E
:1047D000FF206F3001E0FF206E30301A86B2208853
:1047E000401C20802088FF21913100F0BDFE00296F
:1047F0000DD02088642100F0B7FE00290AD0278858
:10480000F817800FC01980108000381A02D1FF20DD
:104810006F3001E0FF206E30B042C4DD0020288000
:1048200035E02888012819D12088FF21913100F036
:104830009BFE00290DD02088642100F095FE002900
:1048400009D02788F817800FC01980108000381A07
:1048500001D1012000E000201C3013E02888062848
:1048600008DD2878C007C00F002801D01E2009E00D
:104870001F2007E02878C007C00F002801D01F20A4
:1048800000E01E20301A86B22888401C2880288824
:10489000012819D12088FF21913100F065FE0029FF
:1048A0000DD02088642100F05FFE002909D0278800
:1048B000F817800FC01980108000381A01D101202C
:1048C00000E000201C3013E02888062808DD287846
:1048D000C007C00F002801D01E2009E01F2007E0FC
:1048E0002878C007C00F002801D01F2000E01E203C
:1048F000B04296DD2888401C2880701C81B2059843
:104900000180E1210901029800F018FE81B20698A9
:104910000180E1210901029800F010FE0F463C21C0
:10492000384600F00BFE0C9908803C21029800F0FC
:1049300005FE0D98018007B0F0BD5721154A117092
:10494000A821117013494039486312492039497C24
:10495000402211430F4A203A517400210D4A117030
:10496000704700BF0B494039886B896B8142F9D190
:1049700070475721074A1170A82111700549203945
:10498000497C17229143034A203A51741146497CCD
:10499000102203E040100040E407000002431143EE
:1049A000304A517400212F4A20321170704700B5EF
:1049B0000346FFF7D6FFC2182B48824200D9121ACD
:1049C00090B2002802D00120000412185720254977
:1049D00020310870A82008702248203842632148FE
:1049E000407C202108431F49487400201D49203184
:1049F000087000BD0021002802D12022114303E0ED
:104A0000012801D1102211435722164B20331A706E
:104A1000A8221A70134A527C8A43124B5A740022FD
:104A2000104B20331A7070470146002904D10D48FD
:104A3000007C8022104070470A48007C40221040D1
:104A4000F9E7002802D0012808D103E02021054A17
:104A5000117404E01021034A117400E000BF00BF8C
:104A600070470000201000400000C0A800B50B00F7
:104A700000F0AAFD050412202E3842009B4A526B1A
:104A800082439A4B5A631A46126B82431A631A4640
:104A9000126A82431A6230E0944A526B8243934B0B
:104AA0005A631A46126B02431A631A46126A824309
:104AB0001A6222E08D4A526B02438C4B5A631A46AB
:104AC000126B82431A631A46126A82431A6214E016
:104AD000864A526B8243854B5A631A46126A0243D6
:104AE0001A620AE0814A526B0243804B5A631A46AB
:104AF000126A02431A6200E000BF00BF00BD00B5A9
:104B00000B0000F061FD0504142434404C00774A8A
:104B1000403252698243754B40335A611A461269DA
:104B200082431A611A46126882431A6038E06F4A5B
:104B30004032526982436D4B40335A611A461269C2
:104B400002431A611A46126882431A6028E0674AD3
:104B5000403252690243654B40335A611A4612692A
:104B600082431A611A46126882431A6018E05F4A4B
:104B70004032526982435D4B40335A611A46126893
:104B800002431A600CE0594A403252690243574BC3
:104B900040335A611A46126802431A6000E000BFAF
:104BA00000BF00BD002906D001290ED0022916D071
:104BB000032928D11DE04D4A928A82434B4B9A82A9
:104BC0001A46D26A0243DA621EE0484A928A824357
:104BD000464B9A821A46926A02439A6214E0434A0A
:104BE000928A0243414B9A821A46D26A0243DA629F
:104BF0000AE03E4A928A02433C4B9A821A46926AE3
:104C000002439A6200E000BF00BF384B98831A4607
:104C1000128A02431A827047002906D0012911D056
:104C200002291CD0032934D126E0304AD28A82439B
:104C30002E4BDA822D4A4032D26802432B4B40334E
:104C4000DA6027E0294AD28A8243284BDA82274A4F
:104C5000403292680243254B40339A601AE0234A5F
:104C6000D28A0243214BDA82204A4032D268024380
:104C70001E4B4033DA600DE01C4AD28A02431B4BC4
:104C8000DA821A4A403292680243184B40339A60E3
:104C900000E000BF00BF154BD8831A46528A02437A
:104CA0005A827047002807D0104A803A128B0A4374
:104CB0000E4B803B1A8306E00C4A803A128B8A43E3
:104CC0000A4B803B1A837047002807D0074A803A76
:104CD000528B0A43054B803B5A8306E0034A803AD5
:104CE000528B8A43014B803B5A83704780100040AF
:104CF00010B50446002C11D157209E490870A820F9
:104D000008709C482038008803214902884399494B
:104D1000203908800020974908701FE057209549E6
:104D20000870A820087093482038008809150843A7
:104D30009049203908800A2000F08BF957208D49CE
:104D40000870A82008708B4820380088491508434F
:104D500088492039088000208649087010BD002845
:104D600023D15722834B1A70A8221A7080220A403E
:104D7000002A07D07F4A403AD27B02231A437D4B58
:104D8000403BDA737B4A403A927A1C230B409A43A9
:104D9000784B403B9A72774A203AD27B8B079B0F25
:104DA0009A43744B203BDA7322E05722714B1A70FE
:104DB000A8221A7080220A40002A07D06D4A403A81
:104DC000D27B02239A436B4B403BDA73694A403AE9
:104DD000927A1C230B401A43664B403B9A72654AF9
:104DE000203AD27B8B079B0F1A43624B203BDA732E
:104DF0000022604B1A70704700280CD157225D4B7F
:104E00001A70A8221A705B4A403AD2680A43594B7A
:104E1000403BDA600BE05722564B1A70A8221A70FA
:104E2000544A403AD2688A43524B403BDA600022EF
:104E3000504B1A70704700280CD157224D4B1A70F6
:104E4000A8221A704B4A403A927B8A43494B403B16
:104E50009A730BE05722474B1A70A8221A70454AE2
:104E6000403A927B0A43434B403B9A730022414BAA
:104E70001A70704710B50446002C0BD157203D49DD
:104E80000870A820087000203A4920390871394973
:104E900008701BE0572037490870A82008700120CF
:104EA00034492039487108710020324908700120C6
:104EB00000F0CFF857202F490870A82008700D2067
:104EC0002C492039087100202A49087010BD2A4851
:104ED0000069042188432849086130BF7047572181
:104EE000244A1170A821117022494039897B082277
:104EF0001143204A403A9173092109031D4A203A7F
:104F0000118000211B4A117000BF1A494039886B7B
:104F1000896B8142F9D10A301849884200D9401A78
:104F200081B2002902D00121090440183021114A20
:104F3000203A117457210F4A1170A82111700D49A0
:104F4000403948632F210B4A203A51740021094A05
:104F5000117057211170A82111700521054A403A9E
:104F600011810021034A117040BF20BF20BF00BF44
:104F7000FEE700004010004000ED00E00000C0A887
:104F80000146062904D1464800780822104070479F
:104F90004348407901228A401040F8E757204049B1
:104FA0000870A820087008468079012108433C4910
:104FB00088710020087070473A4909680160002133
:104FC000C943384A803211607047364908607047DB
:104FD0003548806970475721314A1170A8211170F6
:104FE000002806D111468979042291432C4A9171F7
:104FF00005E02B49897904221143294A9171002146
:10500000274A117070475721254A1170A821117045
:10501000002806D11146897902229143204A9171D4
:1050200005E01F498979022211431D4A917100212F
:105030001B4A11707047572019490870A820087042
:1050400008468079102108431549887100200870AE
:10505000704710B500210AE0022201E000BF00BF46
:105060001346541EA2B2002BF8D14B1C99B28142B8
:10507000F2DB10BD30B50446002505E07D20C00000
:10508000FFF7E7FF681C85B2A542F7DB30BD00BF24
:10509000064AD27A082AFBD0044B187270470000E7
:1050A0004010004000E100E000E000E0003400407B
:1050B0001449C8600221134A11700421117070470D
:1050C0001049C86002210F4A1170152111707047F4
:1050D00002210C4A1170810115221143094A1170F5
:1050E000704702010C231A438B011A43054B1A70B7
:1050F00070470221034A1170810105221143014AC0
:10510000117070470020004070B50446FFF7E1F8C9
:105110000A214843C6082146304600F00FFA0546EA
:105120000A21681D00F00AFA054628498D8170BDE4
:1051300010B5E1204002FFF7E7FF87202349887080
:105140000320C870402048700120887310BD1F499B
:105150008978C0229143820111431C4A91707047A3
:1051600000280BD0194A52780A43184B5A701A4635
:10517000127808231A43154B1A7004E0134A527828
:105180008A43124B5A70704780201049487070470C
:1051900010B50A4609E00D4BDB7A082B05D00378E1
:1051A0000A4C2372401C531E9AB2002AF3D110BD40
:1051B0000146002005E0054A127A0A70491C421C8B
:1051C00090B2024A927A002AF5D17047003400402A
:1051D0000020CF49897A0822114000290BD157219C
:1051E000CB4A40321170A8211170C949897A08222E
:1051F0001143C74A91725721C54A40321170A82104
:1052000011700521C24A1181C14920310988032248
:1052100052029143BE4A20321180BD49897A102240
:105220001143BB4A91720021B94A4032117017E014
:10523000B74920318979C907C90F002901D0002059
:1052400000E0401C7D210901884209D95721B04A5C
:1052500040321170A821117001219171002111704B
:10526000E6E770B5AA482030847BA9484030857BAA
:105270002846FC210840C51CA5482030008BA549C4
:10528000884203DD2046FC210840441C5720A049E9
:1052900040310870A82008709D48C07B08218843D1
:1052A0009B49C87300209A492031087108468473CD
:1052B000974840308573052095490881002094491E
:1052C00040310870944800690421084392490861FC
:1052D00030BF00208E49403108700120FFF7CAFD21
:1052E00070BD8B4A2032907B894A4032917BFC22F0
:1052F0000A40D11C864A2032128B864B9A4202DD2C
:10530000FC220240501C5722814B40331A70A822C5
:105310001A707F4AD27B08231A437D4BDA7300222E
:105320007B4B20331A711A469073794A403291733D
:105330000522774B1A810022754B40331A70764A4A
:10534000126904231A43744B1A6130BF0022704B58
:1053500040331A7057221A70A8221A7001226C4B1F
:1053600020335A711A710022694B40331A7000BF02
:1053700000BF5722664B40331A70A8221A700D22C4
:10538000634B20331A710022614B40331A7070470F
:1053900010B55F4B2033997B5D4B40339A7BFC23E8
:1053A0001340DA1C5A4B20331B8B5A4CA34202DDAC
:1053B000FC230B40591C5723554C40342370A82321
:1053C0002370564B0343524C203423800023504C0F
:1053D0004034237057232370A823237000234C4CA0
:1053E0002034237123469973494B40339A73052324
:1053F000474C23810023464C40342370464B1B69A5
:1054000004242343444C236130BF0023404C4034E8
:10541000237057232370A823237001233C4C20348E
:105420006371237100233A4C4034237000BF00BFE6
:105430005723374C40342370A82323700D23344C5A
:10544000203423710023324C4034237010BD10B53A
:105450002F4B2033997B2E4B40339A7BFC231340F8
:10546000DA1C2B4B20331B8B2A4CA34202DDFC237E
:105470000B40591C5723264C40342370A82323701B
:1054800009231B030343224C203423800023204C98
:105490004034237057232370A823237000231C4C0F
:1054A0002034237123469973194B40339A73052393
:1054B000174C23810023164C40342370164B1B6974
:1054C00004242343144C236130BF0023104C403488
:1054D000237057232370A823237001230C4C2034FE
:1054E0006371237100230A4C4034237000BF00BF56
:1054F0005723074C40342370A82323700D23044CFA
:10550000203423710023024C4034237010BD00006E
:1055100000100040FF3F000000ED00E0049000009C
:105520000448804704480047FEE7FEE7FEE7FEE741
:10553000FEE70000554100009140000030B50B46E9
:10554000014600202022012409E00D46D5409D425D
:1055500005D31D469540491B2546954040191546E3
:10556000521E002DF1DC30BD70B500242546002808
:1055700001DA01244042002901DA01254942FFF7FE
:10558000DDFFAC4200D04042002C00D0494270BD4B
:10559000064C0125064E05E0E36807CC2B430C3C86
:1055A00098471034B442F7D3FEF776FD205600003A
:1055B0003056000010B5024A024900F022F810BD32
:1055C0008F5000000000002030B47446641E25781F
:1055D000641CAB4204D3635D5B00E31830BC184726
:1055E0001D46F8E702E008C8121F08C1002AFAD1D8
:1055F00070477047002001E001C1121F002AFBD153
:105600007047F8B516460F460446002503E03946B4
:10561000B047641C6D1C20780028F8D12846F8BDDE
:10562000305600000000002004000000E455000097
:045630000000000076
:040000050000409126
:00000001FF
